:0300000002029E5B
:0C029E00787FE4F6D8FD7581260202E5A9
:080003001204571204BA80FB3D
:10046C00EFFD7C007005C297C2A322ED64014C70B5
:04047C0002D2A322E3
:1004570012000E12049E1204807BFF7A04796C123C
:05046700049202036B8A
:0304BA0002042910
:0D000E0043918053927F43A10853A2F72233
:10036B00758E07438901758A88758CFAC28CD2A960
:10037B00D28C438920758B10758D10C28ED2ABD267
:10038B008EE4F5C9F5C875CB4475CA80C2CAD2AD27
:05039B00D2CAD2AF221E
:03000B0002032AC3
:10032A00C0E0C0F0C083C082C0D075D000C000C099
:10033A0001C002C003C004C005C006C007758A8890
:10034A00758CFA12040FD007D006D005D004D0035A
:10035A00D002D001D000D0D0D082D083D0F0D0E06B
:01036A003260
:03001B000204C01C
:0104C0003209
:03002B000204BD0F
:0304BD00C2CF3279
:100440000115FF4A0000000000000001020304053E
:1003D000E4F51FF5207F0112001EEF700505207562
:1003E0001F01D3E5209401748094804003751FFFA2
:0203F000AF1F3D
:0103F20022E8
:100480001204A8E4F510FB7A007916FFFEFDFC02C9
:0204900003F374
:10002E007B007A0079161203A0EC4D4E4F70037FC1
:10003E00FF227B007A0079167FA07E007D007C0077
:10004E001203F31203D08F1EEFF470037FFF22E52D
:10005E001014603014606C14700302011B240360D2
:10006E0003020165E51E7002FF22851E157B007AD4
:10007E000079087F147E007D007C001203F375105A
:10008E0001020168E515651E60030201657B007AB9
:10009E000079081203A0EC4D4E4F70030201687BED
:1000AE00007A0079087F147E007D007C001203F335
:1000BE00751002E51575F005A42400F582E43400F0
:1000CE00020160E515651E6012E4F510E51575F088
:1000DE0005A42401F582E4340080777B007A007950
:1000EE00081203A0EC4D4E4F60707B007A00790829
:1000FE007F147E007D007C001203F3751003E5155E
:10010E0075F005A42402F582E434008045E51565FA
:10011E001E6012E4F510E51575F005A42404F582B1
:10012E00E43400802D7B007A0079081203A0EC4D98
:10013E004E4F60267B007A0079087F147E007D008A
:10014E007C001203F3E51575F005A42403F582E493
:0C015E003400F583E0FF22E4F5107FFF81
:01016A002272
:0C049200EA494B60068B128A1389142281
:1004290012002E8F11E513451445126009851482B7
:0704390085138312020E225D
:0D001E00EF64017005A2A133FF227FFF22D5
:0904A80053A1FD43A2027F0122D1
:060450000423000000007F
:0A049E00E4F526F525F524F52322E8
:10040F00AF26AE25AD24AC23EF2401F526E43EF54F
:0A041F0025E43DF524E43CF523221A
:0904B100AF26AE25AD24AC2322D8
:1003F3008F228E218D208C1F1204B11201ACAF22EB
:0C040300AE21AD20AC1F9000040201C629
:1003A0008B1F8A20892190000412017C1201EAC36C
:1003B000E5269BFBE5259AFAE52499F9E52398F8CB
:1003C000C312016BE440047F018001FFFEFDFC22AB
:1002AA00020003E493A3F8E493A34003F68001F267
:1002BA0008DFF48029E493A3F85407240CC8C33355
:1002CA00C4540F4420C8834004F456800146F6DF24
:1002DA00E4800B0102040810204080900440E47E70
:1002EA00019360BCA3FF543F30E509541FFEE49319
:1002FA00A360010ECF54C025E060A840B8E493A3E0
:10030A00FAE493A3F8E493A3C8C582C8CAC583CA0A
:10031A00F0A3C8C582C8CAC583CADFE9DEE780BEC2
:0104560000A5
:10016B00EB9FF5F0EA9E42F0E99D42F0E89C45F0EA
:01017B002261
:10017C00BB010DE58229F582E5833AF58302021C69
:10018C005007E92582F8020210BBFE07E92582F828
:10019C00020228E58229F582E5833AF583020234CE
:1001AC00BB010789828A830202865005E9F80202A4
:0A01BC007ABBFE05E9F80202922268
:1001C600BB010DE58229F582E5833AF583020286B5
:1001D6005007E92582F802027ABBFE07E92582F874
:0401E600020292225D
:1001EA00BB010789828A830202515005E9F802029B
:1001FA0044BBFE05E9F802025D89828A8302026A2B
:06020A008A838982E4737F
:0C021000E6FC08E6FD08E6FE08E6FF221A
:0C021C00E0FCA3E0FDA3E0FEA3E0FF2255
:0C022800E2FC08E2FD08E2FE08E2FF2212
:10023400E493FC740193FD740293FE740393FF2210
:0D024400E6FB08E6F908E6FA08E6CBF8222A
:0C025100E0F8A3E0F9A3E0FAA3E0FB2230
:0D025D00E2FB08E2F908E2FA08E2CBF82221
:10026A00E493F8740193F9740293FA740393FB22EA
:0C027A00ECF608EDF608EEF608EFF622B0
:0C028600ECF0A3EDF0A3EEF0A3EFF022EB
:0C029200ECF208EDF208EEF208EFF222A8
:00000001FF
