:0300000002016199
:0C016100787FE4F6D8FD7581240201A827
:080003001202EE12029380FBD1
:09032F0020A1037F01227F0022BE
:10031D00EFFD7C007003C29722ED64014C7002D298
:02032D00972215
:0C000E00EA494B60068B1A8A1B891C22F1
:100306001200008F09E51B451C451A6009851C82F1
:07031600851B831200D122B8
:1002EE0012001E12033853A1FD43A2027BFF7A03B4
:0802FE00791D12000E02022E10
:100293007B007A00790A120263EC4D4E4F60137BA8
:1002A300007A00790A7FA07E0F7D007C001202B8DD
:0502B30005080203062E
:0903380043918053927FC2972289
:10022E00758E07438901758A88758CFAC28CD2A99E
:10023E00D28C438920758B10758D10C28ED2ABD2A5
:10024E008EE4F5C9F5C875CB4475CA80C2CAD2AD65
:05025E00D2CAD2AF225C
:03000B000201ED02
:1001ED00C0E0C0F0C083C082C0D075D000C000C0D8
:1001FD0001C002C003C004C005C006C007758A88CF
:10020D00758CFA1202D4D007D006D005D004D003D5
:10021D00D002D001D000D0D0D082D083D0F0D0E0A9
:01022D00329E
:03001B0002001AC6
:01001A0032B3
:03002B00020028A8
:03002800C2CF3212
:06034A00041D000000008C
:0A001E00E4F520F51FF51EF51D2284
:1002D400AF20AE1FAD1EAC1DEF2401F520E43EF5AA
:0A02E4001FE43DF51EE43CF51D2269
:09034100AF20AE1FAD1EAC1D2261
:1002B8008F248E238D228C2112034112006FAF24CC
:0C02C800AE23AD22AC219000040200899E
:100263008B218A22892390000412003F1200ADC320
:10027300E5209BFBE51F9AFAE51E99F9E51D98F821
:10028300C312002EE440047F018001FFFEFDFC2227
:10016D00020003E493A3F8E493A34003F68001F2A5
:10017D0008DFF48029E493A3F85407240CC8C33393
:10018D00C4540F4420C8834004F456800146F6DF62
:10019D00E4800B010204081020408090034AE47EA5
:1001AD00019360BCA3FF543F30E509541FFEE49357
:1001BD00A360010ECF54C025E060A840B8E493A31E
:1001CD00FAE493A3F8E493A3C8C582C8CAC583CA49
:1001DD00F0A3C8C582C8CAC583CADFE9DEE780BE01
:0103500000AC
:10002E00EB9FF5F0EA9E42F0E99D42F0E89C45F028
:01003E00229F
:10003F00BB010DE58229F582E5833AF5830200DFE6
:10004F005007E92582F80200D3BBFE07E92582F8A5
:10005F000200EBE58229F582E5833AF5830200F78A
:10006F00BB010789828A830201495005E9F8020121
:0A007F003DBBFE05E9F80201552221
:10008900BB010DE58229F582E5833AF58302014931
:100099005007E92582F802013DBBFE07E92582F8F0
:0400A90002015522D9
:1000AD00BB010789828A830201145005E9F8020118
:1000BD0007BBFE05E9F802012089828A8302012D22
:0600CD008A838982E473BE
:0C00D300E6FC08E6FD08E6FE08E6FF2259
:0C00DF00E0FCA3E0FDA3E0FEA3E0FF2294
:0C00EB00E2FC08E2FD08E2FE08E2FF2251
:1000F700E493FC740193FD740293FE740393FF224F
:0D010700E6FB08E6F908E6FA08E6CBF82268
:0C011400E0F8A3E0F9A3E0FAA3E0FB226E
:0D012000E2FB08E2F908E2FA08E2CBF8225F
:10012D00E493F8740193F9740293FA740393FB2228
:0C013D00ECF608EDF608EEF608EFF622EE
:0C014900ECF0A3EDF0A3EEF0A3EFF02229
:0C015500ECF208EDF208EEF208EFF222E6
:00000001FF
